{
	"data": {
		"bytecode": {
			"linkReferences": {},
			"object": "608060405260015f5f6101000a81548160ff0219169083151502179055507fffffffffffffffffffffffffffffffffffffffffffffffffffffffffffffffe05f60016101000a81548163ffffffff021916908360030b63ffffffff1602179055506001805562d72e0860025f6101000a81548163ffffffff021916908363ffffffff1602179055507f4100000000000000000000000000000000000000000000000000000000000000600260056101000a81548160ff021916908360f81c02179055506040518060400160405280601181526020017f696e69206164616c616820737472696e67000000000000000000000000000000815250600390816101069190610355565b50348015610112575f5ffd5b50610424565b5f81519050919050565b7f4e487b71000000000000000000000000000000000000000000000000000000005f52604160045260245ffd5b7f4e487b71000000000000000000000000000000000000000000000000000000005f52602260045260245ffd5b5f600282049050600182168061019357607f821691505b6020821081036101a6576101a561014f565b5b50919050565b5f819050815f5260205f209050919050565b5f6020601f8301049050919050565b5f82821b905092915050565b5f600883026102087fffffffffffffffffffffffffffffffffffffffffffffffffffffffffffffffff826101cd565b61021286836101cd565b95508019841693508086168417925050509392505050565b5f819050919050565b5f819050919050565b5f61025661025161024c8461022a565b610233565b61022a565b9050919050565b5f819050919050565b61026f8361023c565b61028361027b8261025d565b8484546101d9565b825550505050565b5f5f905090565b61029a61028b565b6102a5818484610266565b505050565b5b818110156102c8576102bd5f82610292565b6001810190506102ab565b5050565b601f82111561030d576102de816101ac565b6102e7846101be565b810160208510156102f6578190505b61030a610302856101be565b8301826102aa565b50505b505050565b5f82821c905092915050565b5f61032d5f1984600802610312565b1980831691505092915050565b5f610345838361031e565b9150826002028217905092915050565b61035e82610118565b67ffffffffffffffff81111561037757610376610122565b5b610381825461017c565b61038c8282856102cc565b5f60209050601f8311600181146103bd575f84156103ab578287015190505b6103b5858261033a565b86555061041c565b601f1984166103cb866101ac565b5f5b828110156103f2578489015182556001820191506020850194506020810190506103cd565b8683101561040f578489015161040b601f89168261031e565b8355505b6001600288020188555050505b505050505050565b61053a806104315f395ff3fe608060405234801561000f575f5ffd5b5060043610610086575f3560e01c806372ee2df91161005957806372ee2df914610102578063861f708f1461010c578063c19912191461012a578063f0ebce5a1461014857610086565b80631a4ae17a1461008a57806337a3468d146100a8578063424f938c146100c657806348898752146100e4575b5f5ffd5b610092610166565b60405161009f91906102a3565b60405180910390f35b6100b0610179565b6040516100bd91906102d7565b60405180910390f35b6100ce61018b565b6040516100db9190610308565b60405180910390f35b6100ec610191565b6040516100f99190610391565b60405180910390f35b61010a61021d565b005b61011461023b565b60405161012191906103cf565b60405180910390f35b610132610250565b60405161013f9190610402565b60405180910390f35b610150610261565b60405161015d919061048e565b60405180910390f35b600260059054906101000a900460f81b81565b5f60019054906101000a900460030b81565b60015481565b6003805461019e906104d4565b80601f01602080910402602001604051908101604052809291908181526020018280546101ca906104d4565b80156102155780601f106101ec57610100808354040283529160200191610215565b820191905f5260205f20905b8154815290600101906020018083116101f857829003601f168201915b505050505081565b6005600260046101000a81548160ff021916908360ff160217905550565b60025f9054906101000a900463ffffffff1681565b5f5f9054906101000a900460ff1681565b5f6001905090565b5f7fff0000000000000000000000000000000000000000000000000000000000000082169050919050565b61029d81610269565b82525050565b5f6020820190506102b65f830184610294565b92915050565b5f8160030b9050919050565b6102d1816102bc565b82525050565b5f6020820190506102ea5f8301846102c8565b92915050565b5f819050919050565b610302816102f0565b82525050565b5f60208201905061031b5f8301846102f9565b92915050565b5f81519050919050565b5f82825260208201905092915050565b8281835e5f83830152505050565b5f601f19601f8301169050919050565b5f61036382610321565b61036d818561032b565b935061037d81856020860161033b565b61038681610349565b840191505092915050565b5f6020820190508181035f8301526103a98184610359565b905092915050565b5f63ffffffff82169050919050565b6103c9816103b1565b82525050565b5f6020820190506103e25f8301846103c0565b92915050565b5f8115159050919050565b6103fc816103e8565b82525050565b5f6020820190506104155f8301846103f3565b92915050565b7f4e487b71000000000000000000000000000000000000000000000000000000005f52602160045260245ffd5b600381106104595761045861041b565b5b50565b5f81905061046982610448565b919050565b5f6104788261045c565b9050919050565b6104888161046e565b82525050565b5f6020820190506104a15f83018461047f565b92915050565b7f4e487b71000000000000000000000000000000000000000000000000000000005f52602260045260245ffd5b5f60028204905060018216806104eb57607f821691505b6020821081036104fe576104fd6104a7565b5b5091905056fea26469706673582212200176493f042a726be0323d10d1f67d72b5c85bcf5d6c1d375206a24e336bc1de64736f6c634300081c0033",
			"opcodes": "PUSH1 0x80 PUSH1 0x40 MSTORE PUSH1 0x1 PUSH0 PUSH0 PUSH2 0x100 EXP DUP2 SLOAD DUP2 PUSH1 0xFF MUL NOT AND SWAP1 DUP4 ISZERO ISZERO MUL OR SWAP1 SSTORE POP PUSH32 0xFFFFFFFFFFFFFFFFFFFFFFFFFFFFFFFFFFFFFFFFFFFFFFFFFFFFFFFFFFFFFFE0 PUSH0 PUSH1 0x1 PUSH2 0x100 EXP DUP2 SLOAD DUP2 PUSH4 0xFFFFFFFF MUL NOT AND SWAP1 DUP4 PUSH1 0x3 SIGNEXTEND PUSH4 0xFFFFFFFF AND MUL OR SWAP1 SSTORE POP PUSH1 0x1 DUP1 SSTORE PUSH3 0xD72E08 PUSH1 0x2 PUSH0 PUSH2 0x100 EXP DUP2 SLOAD DUP2 PUSH4 0xFFFFFFFF MUL NOT AND SWAP1 DUP4 PUSH4 0xFFFFFFFF AND MUL OR SWAP1 SSTORE POP PUSH32 0x4100000000000000000000000000000000000000000000000000000000000000 PUSH1 0x2 PUSH1 0x5 PUSH2 0x100 EXP DUP2 SLOAD DUP2 PUSH1 0xFF MUL NOT AND SWAP1 DUP4 PUSH1 0xF8 SHR MUL OR SWAP1 SSTORE POP PUSH1 0x40 MLOAD DUP1 PUSH1 0x40 ADD PUSH1 0x40 MSTORE DUP1 PUSH1 0x11 DUP2 MSTORE PUSH1 0x20 ADD PUSH32 0x696E69206164616C616820737472696E67000000000000000000000000000000 DUP2 MSTORE POP PUSH1 0x3 SWAP1 DUP2 PUSH2 0x106 SWAP2 SWAP1 PUSH2 0x355 JUMP JUMPDEST POP CALLVALUE DUP1 ISZERO PUSH2 0x112 JUMPI PUSH0 PUSH0 REVERT JUMPDEST POP PUSH2 0x424 JUMP JUMPDEST PUSH0 DUP2 MLOAD SWAP1 POP SWAP2 SWAP1 POP JUMP JUMPDEST PUSH32 0x4E487B7100000000000000000000000000000000000000000000000000000000 PUSH0 MSTORE PUSH1 0x41 PUSH1 0x4 MSTORE PUSH1 0x24 PUSH0 REVERT JUMPDEST PUSH32 0x4E487B7100000000000000000000000000000000000000000000000000000000 PUSH0 MSTORE PUSH1 0x22 PUSH1 0x4 MSTORE PUSH1 0x24 PUSH0 REVERT JUMPDEST PUSH0 PUSH1 0x2 DUP3 DIV SWAP1 POP PUSH1 0x1 DUP3 AND DUP1 PUSH2 0x193 JUMPI PUSH1 0x7F DUP3 AND SWAP2 POP JUMPDEST PUSH1 0x20 DUP3 LT DUP2 SUB PUSH2 0x1A6 JUMPI PUSH2 0x1A5 PUSH2 0x14F JUMP JUMPDEST JUMPDEST POP SWAP2 SWAP1 POP JUMP JUMPDEST PUSH0 DUP2 SWAP1 POP DUP2 PUSH0 MSTORE PUSH1 0x20 PUSH0 KECCAK256 SWAP1 POP SWAP2 SWAP1 POP JUMP JUMPDEST PUSH0 PUSH1 0x20 PUSH1 0x1F DUP4 ADD DIV SWAP1 POP SWAP2 SWAP1 POP JUMP JUMPDEST PUSH0 DUP3 DUP3 SHL SWAP1 POP SWAP3 SWAP2 POP POP JUMP JUMPDEST PUSH0 PUSH1 0x8 DUP4 MUL PUSH2 0x208 PUSH32 0xFFFFFFFFFFFFFFFFFFFFFFFFFFFFFFFFFFFFFFFFFFFFFFFFFFFFFFFFFFFFFFFF DUP3 PUSH2 0x1CD JUMP JUMPDEST PUSH2 0x212 DUP7 DUP4 PUSH2 0x1CD JUMP JUMPDEST SWAP6 POP DUP1 NOT DUP5 AND SWAP4 POP DUP1 DUP7 AND DUP5 OR SWAP3 POP POP POP SWAP4 SWAP3 POP POP POP JUMP JUMPDEST PUSH0 DUP2 SWAP1 POP SWAP2 SWAP1 POP JUMP JUMPDEST PUSH0 DUP2 SWAP1 POP SWAP2 SWAP1 POP JUMP JUMPDEST PUSH0 PUSH2 0x256 PUSH2 0x251 PUSH2 0x24C DUP5 PUSH2 0x22A JUMP JUMPDEST PUSH2 0x233 JUMP JUMPDEST PUSH2 0x22A JUMP JUMPDEST SWAP1 POP SWAP2 SWAP1 POP JUMP JUMPDEST PUSH0 DUP2 SWAP1 POP SWAP2 SWAP1 POP JUMP JUMPDEST PUSH2 0x26F DUP4 PUSH2 0x23C JUMP JUMPDEST PUSH2 0x283 PUSH2 0x27B DUP3 PUSH2 0x25D JUMP JUMPDEST DUP5 DUP5 SLOAD PUSH2 0x1D9 JUMP JUMPDEST DUP3 SSTORE POP POP POP POP JUMP JUMPDEST PUSH0 PUSH0 SWAP1 POP SWAP1 JUMP JUMPDEST PUSH2 0x29A PUSH2 0x28B JUMP JUMPDEST PUSH2 0x2A5 DUP2 DUP5 DUP5 PUSH2 0x266 JUMP JUMPDEST POP POP POP JUMP JUMPDEST JUMPDEST DUP2 DUP2 LT ISZERO PUSH2 0x2C8 JUMPI PUSH2 0x2BD PUSH0 DUP3 PUSH2 0x292 JUMP JUMPDEST PUSH1 0x1 DUP2 ADD SWAP1 POP PUSH2 0x2AB JUMP JUMPDEST POP POP JUMP JUMPDEST PUSH1 0x1F DUP3 GT ISZERO PUSH2 0x30D JUMPI PUSH2 0x2DE DUP2 PUSH2 0x1AC JUMP JUMPDEST PUSH2 0x2E7 DUP5 PUSH2 0x1BE JUMP JUMPDEST DUP2 ADD PUSH1 0x20 DUP6 LT ISZERO PUSH2 0x2F6 JUMPI DUP2 SWAP1 POP JUMPDEST PUSH2 0x30A PUSH2 0x302 DUP6 PUSH2 0x1BE JUMP JUMPDEST DUP4 ADD DUP3 PUSH2 0x2AA JUMP JUMPDEST POP POP JUMPDEST POP POP POP JUMP JUMPDEST PUSH0 DUP3 DUP3 SHR SWAP1 POP SWAP3 SWAP2 POP POP JUMP JUMPDEST PUSH0 PUSH2 0x32D PUSH0 NOT DUP5 PUSH1 0x8 MUL PUSH2 0x312 JUMP JUMPDEST NOT DUP1 DUP4 AND SWAP2 POP POP SWAP3 SWAP2 POP POP JUMP JUMPDEST PUSH0 PUSH2 0x345 DUP4 DUP4 PUSH2 0x31E JUMP JUMPDEST SWAP2 POP DUP3 PUSH1 0x2 MUL DUP3 OR SWAP1 POP SWAP3 SWAP2 POP POP JUMP JUMPDEST PUSH2 0x35E DUP3 PUSH2 0x118 JUMP JUMPDEST PUSH8 0xFFFFFFFFFFFFFFFF DUP2 GT ISZERO PUSH2 0x377 JUMPI PUSH2 0x376 PUSH2 0x122 JUMP JUMPDEST JUMPDEST PUSH2 0x381 DUP3 SLOAD PUSH2 0x17C JUMP JUMPDEST PUSH2 0x38C DUP3 DUP3 DUP6 PUSH2 0x2CC JUMP JUMPDEST PUSH0 PUSH1 0x20 SWAP1 POP PUSH1 0x1F DUP4 GT PUSH1 0x1 DUP2 EQ PUSH2 0x3BD JUMPI PUSH0 DUP5 ISZERO PUSH2 0x3AB JUMPI DUP3 DUP8 ADD MLOAD SWAP1 POP JUMPDEST PUSH2 0x3B5 DUP6 DUP3 PUSH2 0x33A JUMP JUMPDEST DUP7 SSTORE POP PUSH2 0x41C JUMP JUMPDEST PUSH1 0x1F NOT DUP5 AND PUSH2 0x3CB DUP7 PUSH2 0x1AC JUMP JUMPDEST PUSH0 JUMPDEST DUP3 DUP2 LT ISZERO PUSH2 0x3F2 JUMPI DUP5 DUP10 ADD MLOAD DUP3 SSTORE PUSH1 0x1 DUP3 ADD SWAP2 POP PUSH1 0x20 DUP6 ADD SWAP5 POP PUSH1 0x20 DUP2 ADD SWAP1 POP PUSH2 0x3CD JUMP JUMPDEST DUP7 DUP4 LT ISZERO PUSH2 0x40F JUMPI DUP5 DUP10 ADD MLOAD PUSH2 0x40B PUSH1 0x1F DUP10 AND DUP3 PUSH2 0x31E JUMP JUMPDEST DUP4 SSTORE POP JUMPDEST PUSH1 0x1 PUSH1 0x2 DUP9 MUL ADD DUP9 SSTORE POP POP POP JUMPDEST POP POP POP POP POP POP JUMP JUMPDEST PUSH2 0x53A DUP1 PUSH2 0x431 PUSH0 CODECOPY PUSH0 RETURN INVALID PUSH1 0x80 PUSH1 0x40 MSTORE CALLVALUE DUP1 ISZERO PUSH2 0xF JUMPI PUSH0 PUSH0 REVERT JUMPDEST POP PUSH1 0x4 CALLDATASIZE LT PUSH2 0x86 JUMPI PUSH0 CALLDATALOAD PUSH1 0xE0 SHR DUP1 PUSH4 0x72EE2DF9 GT PUSH2 0x59 JUMPI DUP1 PUSH4 0x72EE2DF9 EQ PUSH2 0x102 JUMPI DUP1 PUSH4 0x861F708F EQ PUSH2 0x10C JUMPI DUP1 PUSH4 0xC1991219 EQ PUSH2 0x12A JUMPI DUP1 PUSH4 0xF0EBCE5A EQ PUSH2 0x148 JUMPI PUSH2 0x86 JUMP JUMPDEST DUP1 PUSH4 0x1A4AE17A EQ PUSH2 0x8A JUMPI DUP1 PUSH4 0x37A3468D EQ PUSH2 0xA8 JUMPI DUP1 PUSH4 0x424F938C EQ PUSH2 0xC6 JUMPI DUP1 PUSH4 0x48898752 EQ PUSH2 0xE4 JUMPI JUMPDEST PUSH0 PUSH0 REVERT JUMPDEST PUSH2 0x92 PUSH2 0x166 JUMP JUMPDEST PUSH1 0x40 MLOAD PUSH2 0x9F SWAP2 SWAP1 PUSH2 0x2A3 JUMP JUMPDEST PUSH1 0x40 MLOAD DUP1 SWAP2 SUB SWAP1 RETURN JUMPDEST PUSH2 0xB0 PUSH2 0x179 JUMP JUMPDEST PUSH1 0x40 MLOAD PUSH2 0xBD SWAP2 SWAP1 PUSH2 0x2D7 JUMP JUMPDEST PUSH1 0x40 MLOAD DUP1 SWAP2 SUB SWAP1 RETURN JUMPDEST PUSH2 0xCE PUSH2 0x18B JUMP JUMPDEST PUSH1 0x40 MLOAD PUSH2 0xDB SWAP2 SWAP1 PUSH2 0x308 JUMP JUMPDEST PUSH1 0x40 MLOAD DUP1 SWAP2 SUB SWAP1 RETURN JUMPDEST PUSH2 0xEC PUSH2 0x191 JUMP JUMPDEST PUSH1 0x40 MLOAD PUSH2 0xF9 SWAP2 SWAP1 PUSH2 0x391 JUMP JUMPDEST PUSH1 0x40 MLOAD DUP1 SWAP2 SUB SWAP1 RETURN JUMPDEST PUSH2 0x10A PUSH2 0x21D JUMP JUMPDEST STOP JUMPDEST PUSH2 0x114 PUSH2 0x23B JUMP JUMPDEST PUSH1 0x40 MLOAD PUSH2 0x121 SWAP2 SWAP1 PUSH2 0x3CF JUMP JUMPDEST PUSH1 0x40 MLOAD DUP1 SWAP2 SUB SWAP1 RETURN JUMPDEST PUSH2 0x132 PUSH2 0x250 JUMP JUMPDEST PUSH1 0x40 MLOAD PUSH2 0x13F SWAP2 SWAP1 PUSH2 0x402 JUMP JUMPDEST PUSH1 0x40 MLOAD DUP1 SWAP2 SUB SWAP1 RETURN JUMPDEST PUSH2 0x150 PUSH2 0x261 JUMP JUMPDEST PUSH1 0x40 MLOAD PUSH2 0x15D SWAP2 SWAP1 PUSH2 0x48E JUMP JUMPDEST PUSH1 0x40 MLOAD DUP1 SWAP2 SUB SWAP1 RETURN JUMPDEST PUSH1 0x2 PUSH1 0x5 SWAP1 SLOAD SWAP1 PUSH2 0x100 EXP SWAP1 DIV PUSH1 0xF8 SHL DUP2 JUMP JUMPDEST PUSH0 PUSH1 0x1 SWAP1 SLOAD SWAP1 PUSH2 0x100 EXP SWAP1 DIV PUSH1 0x3 SIGNEXTEND DUP2 JUMP JUMPDEST PUSH1 0x1 SLOAD DUP2 JUMP JUMPDEST PUSH1 0x3 DUP1 SLOAD PUSH2 0x19E SWAP1 PUSH2 0x4D4 JUMP JUMPDEST DUP1 PUSH1 0x1F ADD PUSH1 0x20 DUP1 SWAP2 DIV MUL PUSH1 0x20 ADD PUSH1 0x40 MLOAD SWAP1 DUP2 ADD PUSH1 0x40 MSTORE DUP1 SWAP3 SWAP2 SWAP1 DUP2 DUP2 MSTORE PUSH1 0x20 ADD DUP3 DUP1 SLOAD PUSH2 0x1CA SWAP1 PUSH2 0x4D4 JUMP JUMPDEST DUP1 ISZERO PUSH2 0x215 JUMPI DUP1 PUSH1 0x1F LT PUSH2 0x1EC JUMPI PUSH2 0x100 DUP1 DUP4 SLOAD DIV MUL DUP4 MSTORE SWAP2 PUSH1 0x20 ADD SWAP2 PUSH2 0x215 JUMP JUMPDEST DUP3 ADD SWAP2 SWAP1 PUSH0 MSTORE PUSH1 0x20 PUSH0 KECCAK256 SWAP1 JUMPDEST DUP2 SLOAD DUP2 MSTORE SWAP1 PUSH1 0x1 ADD SWAP1 PUSH1 0x20 ADD DUP1 DUP4 GT PUSH2 0x1F8 JUMPI DUP3 SWAP1 SUB PUSH1 0x1F AND DUP3 ADD SWAP2 JUMPDEST POP POP POP POP POP DUP2 JUMP JUMPDEST PUSH1 0x5 PUSH1 0x2 PUSH1 0x4 PUSH2 0x100 EXP DUP2 SLOAD DUP2 PUSH1 0xFF MUL NOT AND SWAP1 DUP4 PUSH1 0xFF AND MUL OR SWAP1 SSTORE POP JUMP JUMPDEST PUSH1 0x2 PUSH0 SWAP1 SLOAD SWAP1 PUSH2 0x100 EXP SWAP1 DIV PUSH4 0xFFFFFFFF AND DUP2 JUMP JUMPDEST PUSH0 PUSH0 SWAP1 SLOAD SWAP1 PUSH2 0x100 EXP SWAP1 DIV PUSH1 0xFF AND DUP2 JUMP JUMPDEST PUSH0 PUSH1 0x1 SWAP1 POP SWAP1 JUMP JUMPDEST PUSH0 PUSH32 0xFF00000000000000000000000000000000000000000000000000000000000000 DUP3 AND SWAP1 POP SWAP2 SWAP1 POP JUMP JUMPDEST PUSH2 0x29D DUP2 PUSH2 0x269 JUMP JUMPDEST DUP3 MSTORE POP POP JUMP JUMPDEST PUSH0 PUSH1 0x20 DUP3 ADD SWAP1 POP PUSH2 0x2B6 PUSH0 DUP4 ADD DUP5 PUSH2 0x294 JUMP JUMPDEST SWAP3 SWAP2 POP POP JUMP JUMPDEST PUSH0 DUP2 PUSH1 0x3 SIGNEXTEND SWAP1 POP SWAP2 SWAP1 POP JUMP JUMPDEST PUSH2 0x2D1 DUP2 PUSH2 0x2BC JUMP JUMPDEST DUP3 MSTORE POP POP JUMP JUMPDEST PUSH0 PUSH1 0x20 DUP3 ADD SWAP1 POP PUSH2 0x2EA PUSH0 DUP4 ADD DUP5 PUSH2 0x2C8 JUMP JUMPDEST SWAP3 SWAP2 POP POP JUMP JUMPDEST PUSH0 DUP2 SWAP1 POP SWAP2 SWAP1 POP JUMP JUMPDEST PUSH2 0x302 DUP2 PUSH2 0x2F0 JUMP JUMPDEST DUP3 MSTORE POP POP JUMP JUMPDEST PUSH0 PUSH1 0x20 DUP3 ADD SWAP1 POP PUSH2 0x31B PUSH0 DUP4 ADD DUP5 PUSH2 0x2F9 JUMP JUMPDEST SWAP3 SWAP2 POP POP JUMP JUMPDEST PUSH0 DUP2 MLOAD SWAP1 POP SWAP2 SWAP1 POP JUMP JUMPDEST PUSH0 DUP3 DUP3 MSTORE PUSH1 0x20 DUP3 ADD SWAP1 POP SWAP3 SWAP2 POP POP JUMP JUMPDEST DUP3 DUP2 DUP4 MCOPY PUSH0 DUP4 DUP4 ADD MSTORE POP POP POP JUMP JUMPDEST PUSH0 PUSH1 0x1F NOT PUSH1 0x1F DUP4 ADD AND SWAP1 POP SWAP2 SWAP1 POP JUMP JUMPDEST PUSH0 PUSH2 0x363 DUP3 PUSH2 0x321 JUMP JUMPDEST PUSH2 0x36D DUP2 DUP6 PUSH2 0x32B JUMP JUMPDEST SWAP4 POP PUSH2 0x37D DUP2 DUP6 PUSH1 0x20 DUP7 ADD PUSH2 0x33B JUMP JUMPDEST PUSH2 0x386 DUP2 PUSH2 0x349 JUMP JUMPDEST DUP5 ADD SWAP2 POP POP SWAP3 SWAP2 POP POP JUMP JUMPDEST PUSH0 PUSH1 0x20 DUP3 ADD SWAP1 POP DUP2 DUP2 SUB PUSH0 DUP4 ADD MSTORE PUSH2 0x3A9 DUP2 DUP5 PUSH2 0x359 JUMP JUMPDEST SWAP1 POP SWAP3 SWAP2 POP POP JUMP JUMPDEST PUSH0 PUSH4 0xFFFFFFFF DUP3 AND SWAP1 POP SWAP2 SWAP1 POP JUMP JUMPDEST PUSH2 0x3C9 DUP2 PUSH2 0x3B1 JUMP JUMPDEST DUP3 MSTORE POP POP JUMP JUMPDEST PUSH0 PUSH1 0x20 DUP3 ADD SWAP1 POP PUSH2 0x3E2 PUSH0 DUP4 ADD DUP5 PUSH2 0x3C0 JUMP JUMPDEST SWAP3 SWAP2 POP POP JUMP JUMPDEST PUSH0 DUP2 ISZERO ISZERO SWAP1 POP SWAP2 SWAP1 POP JUMP JUMPDEST PUSH2 0x3FC DUP2 PUSH2 0x3E8 JUMP JUMPDEST DUP3 MSTORE POP POP JUMP JUMPDEST PUSH0 PUSH1 0x20 DUP3 ADD SWAP1 POP PUSH2 0x415 PUSH0 DUP4 ADD DUP5 PUSH2 0x3F3 JUMP JUMPDEST SWAP3 SWAP2 POP POP JUMP JUMPDEST PUSH32 0x4E487B7100000000000000000000000000000000000000000000000000000000 PUSH0 MSTORE PUSH1 0x21 PUSH1 0x4 MSTORE PUSH1 0x24 PUSH0 REVERT JUMPDEST PUSH1 0x3 DUP2 LT PUSH2 0x459 JUMPI PUSH2 0x458 PUSH2 0x41B JUMP JUMPDEST JUMPDEST POP JUMP JUMPDEST PUSH0 DUP2 SWAP1 POP PUSH2 0x469 DUP3 PUSH2 0x448 JUMP JUMPDEST SWAP2 SWAP1 POP JUMP JUMPDEST PUSH0 PUSH2 0x478 DUP3 PUSH2 0x45C JUMP JUMPDEST SWAP1 POP SWAP2 SWAP1 POP JUMP JUMPDEST PUSH2 0x488 DUP2 PUSH2 0x46E JUMP JUMPDEST DUP3 MSTORE POP POP JUMP JUMPDEST PUSH0 PUSH1 0x20 DUP3 ADD SWAP1 POP PUSH2 0x4A1 PUSH0 DUP4 ADD DUP5 PUSH2 0x47F JUMP JUMPDEST SWAP3 SWAP2 POP POP JUMP JUMPDEST PUSH32 0x4E487B7100000000000000000000000000000000000000000000000000000000 PUSH0 MSTORE PUSH1 0x22 PUSH1 0x4 MSTORE PUSH1 0x24 PUSH0 REVERT JUMPDEST PUSH0 PUSH1 0x2 DUP3 DIV SWAP1 POP PUSH1 0x1 DUP3 AND DUP1 PUSH2 0x4EB JUMPI PUSH1 0x7F DUP3 AND SWAP2 POP JUMPDEST PUSH1 0x20 DUP3 LT DUP2 SUB PUSH2 0x4FE JUMPI PUSH2 0x4FD PUSH2 0x4A7 JUMP JUMPDEST JUMPDEST POP SWAP2 SWAP1 POP JUMP INVALID LOG2 PUSH5 0x6970667358 0x22 SLT KECCAK256 ADD PUSH23 0x493F042A726BE0323D10D1F67D72B5C85BCF5D6C1D3752 MOD LOG2 0x4E CALLER PUSH12 0xC1DE64736F6C634300081C00 CALLER "
		},
		"gasEstimates": {
			"creation": {
				"codeDepositCost": "267600",
				"executionCost": "infinite",
				"totalCost": "infinite"
			},
			"external": {
				"angkaInt()": "2543",
				"angkaUint()": "2470",
				"getEnum()": "492",
				"huruf()": "2518",
				"kalimat()": "infinite",
				"tambah()": "24460",
				"ui_data()": "2488",
				"valid()": "2509"
			}
		},
		"methodIdentifiers": {
			"angkaInt()": "37a3468d",
			"angkaUint()": "424f938c",
			"getEnum()": "f0ebce5a",
			"huruf()": "1a4ae17a",
			"kalimat()": "48898752",
			"tambah()": "72ee2df9",
			"ui_data()": "861f708f",
			"valid()": "c1991219"
		}
	},
	"abi": [
		{
			"inputs": [],
			"name": "angkaInt",
			"outputs": [
				{
					"internalType": "int32",
					"name": "",
					"type": "int32"
				}
			],
			"stateMutability": "view",
			"type": "function"
		},
		{
			"inputs": [],
			"name": "angkaUint",
			"outputs": [
				{
					"internalType": "uint256",
					"name": "",
					"type": "uint256"
				}
			],
			"stateMutability": "view",
			"type": "function"
		},
		{
			"inputs": [],
			"name": "getEnum",
			"outputs": [
				{
					"internalType": "enum Types.jobs",
					"name": "",
					"type": "uint8"
				}
			],
			"stateMutability": "pure",
			"type": "function"
		},
		{
			"inputs": [],
			"name": "huruf",
			"outputs": [
				{
					"internalType": "bytes1",
					"name": "",
					"type": "bytes1"
				}
			],
			"stateMutability": "view",
			"type": "function"
		},
		{
			"inputs": [],
			"name": "kalimat",
			"outputs": [
				{
					"internalType": "string",
					"name": "",
					"type": "string"
				}
			],
			"stateMutability": "view",
			"type": "function"
		},
		{
			"inputs": [],
			"name": "tambah",
			"outputs": [],
			"stateMutability": "nonpayable",
			"type": "function"
		},
		{
			"inputs": [],
			"name": "ui_data",
			"outputs": [
				{
					"internalType": "uint32",
					"name": "",
					"type": "uint32"
				}
			],
			"stateMutability": "view",
			"type": "function"
		},
		{
			"inputs": [],
			"name": "valid",
			"outputs": [
				{
					"internalType": "bool",
					"name": "",
					"type": "bool"
				}
			],
			"stateMutability": "view",
			"type": "function"
		}
	]
}